:020000040800F2
:1000000088B9002099020008E7350008053100088A
:10001000E53500087B050008175A000800000000BD
:1000200000000000000000000000000001020008C5
:1000300001060008000000004502000855400008C5
:10004000B3020008B3020008B3020008B3020008BC
:10005000B3020008B3020008B3020008B3020008AC
:10006000B3020008B3020008B3020008B30200089C
:10007000B3020008B3020008B3020008B30200088C
:10008000B3020008B3020008B3020008B30200087C
:1000900091590008B3020008B3020008B302000837
:1000A00000000000B3020008B3020008B302000819
:1000B000F94000080D410008B3020008B30200082F
:1000C000B3020008B3020008B3020008B30200083C
:1000D000B3020008B3020008B3020008B30200082C
:1000E000B3020008B3020008B3020008B30200081C
:1000F000B302000800000000B3020008B3020008C9
:10010000B3020008B3020008B3020008B3020008FB
:10011000B3020008B3020008B302000800000000A8
:10012000B302000800F002F800F05AF80AA090E8C4
:10013000000C82448344AAF10107DA4501D100F0A2
:100140004FF8AFF2090EBAE80F0013F0010F18BF15
:10015000FB1A43F001031847B07A0000D07A000080
:100160000A444FF0000C10F8013B13F0070408BFDD
:1001700010F8014B1D1108BF10F8015B641E05D07B
:1001800010F8016B641E01F8016BF9D113F0080F30
:100190001EBF10F8014BAD1C0C1B09D16D1E58BFC2
:1001A00001F801CBFAD505E014F8016B01F8016BF9
:1001B0006D1EF9D59142D6D370470000002300246C
:1001C00000250026103A28BF78C1FBD8520728BF67
:1001D00030C148BF0B6070471FB51FBD10B510BDC3
:1001E00000F092F91146FFF7F7FF06F097F800F0DC
:1001F000B0F903B4FFF7F2FF03BC00F0B7F9000059
:10020000224B19680868B0E8F00F80F30988BFF343
:100210006F8F4FF0000080F311884EF00D0E704785
:100220000000000006480068006880F3088862B695
:1002300061B6BFF34F8FBFF36F8F00DF00BF00BF0A
:1002400008ED00E0EFF30980BFF36F8F0F4B1A68E2
:1002500020E9F00F106008B54FF0500080F31188CE
:10026000BFF34F8FBFF36F8F06F0DAFE4FF0000041
:1002700080F31188BDE8084019680868B0E8F00FFD
:1002800080F30988BFF36F8F704700BF880100209B
:10029000EFF3058070470000094880470948004790
:1002A000FEE7FEE7FEE7FEE7FEE7FEE7FEE7FEE726
:1002B000FEE7FEE704480549054A064B7047000083
:1002C000F5400008250100088877002088B9002043
:1002D000887900208879002053EA020C00F06980B8
:1002E0002DE9F04B4FF00006002B1FBFB3FA83F54A
:1002F00003FA05F424FA05F65E4012BF1643B2FA7B
:1003000082F502FA05F4C5F120051EBF22FA05FCAC
:1003100044EA0C04203556EA044C4FEA144418BF52
:10032000641C4FF000084FF00009904271EB030C81
:1003300039D3002919BFB1FA81F701FA07F6B0FAEB
:1003400080F700FA07F6C7F120071EBF20FA07FC66
:1003500046EA0C062037B6FBF4FCA7EB0507103F76
:1003600007F01F0BCBF120060CFA0BFB2CFA06F65C
:1003700044BFB3460026202FA4BF5E464FF0000BBB
:100380005BEA060C08BF4FF0010B19EB0B09ABFB46
:10039000027C48EB0608C01B06FB02CC0BFB03CC1F
:1003A00071EB0C01C1E70B46024641464846BDE8E9
:1003B000F08B13B54FF000004FF00001AFF3008059
:1003C000BDE81C407047032A40F2308010F0030C57
:1003D00000F0158011F8013BBCF1020F624498BF98
:1003E00011F801CB00F8013B38BF11F8013BA2F135
:1003F000040298BF00F801CB38BF00F8013B11F0B0
:10040000030300F02580083AC0F0088051F8043B4F
:10041000083A51F804CBA0E80810F5E7121D5CBFBC
:1004200051F8043B40F8043BAFF30080D20724BFEF
:1004300011F8013B11F801CB48BF11F8012B24BF83
:1004400000F8013B00F801CB48BF00F8012B7047D2
:1004500010B5203AC0F00B80B1E81850203AA0E85F
:100460001850B1E81850A0E81850BFF4F5AF5FEA93
:10047000027C24BFB1E81850A0E8185044BF18C946
:1004800018C0BDE810405FEA827C24BF51F8043BED
:1004900040F8043B08BF7047D20728BF31F8023B41
:1004A00048BF11F8012B28BF20F8023B48BF00F8D5
:1004B000012B70474FF0000200B513469446964654
:1004C000203922BFA0E80C50A0E80C50B1F1200167
:1004D000BFF4F7AF090728BFA0E80C5048BF0CC015
:1004E0005DF804EB890028BF40F8042B08BF704773
:1004F00048BF20F8022B11F0804F18BF00F8012BE5
:100500007047704770477047754600F02BF8AE464D
:1005100005006946534620F00700854618B020B50F
:10052000FFF7C8FEBDE820404FF000064FF000077F
:100530004FF000084FF0000B21F00701AC46ACE88B
:10054000C009ACE8C009ACE8C009ACE8C0098D46F8
:10055000704710B50446AFF300802046BDE8104058
:10056000FFF747BE00487047247700200149182054
:10057000ABBEFEE7260002007047FEE70020704792
:100580000020704710B500220449054803F05DFEC5
:100590000449034803F053FE002010BDF41D002061
:1005A00048070020F4150020124810B502680968B9
:1005B000114401600168B1F5006F0FD202680E4965
:1005C000515CFD290AD002680B49491C515CFC2989
:1005D00004D000680849891C014403E001214160FE
:1005E0000549891C054803F02AFE044803F00BFE68
:1005F000002010BD70010020F215002048070020E7
:10060000704772B6FEE70022AFF3008030B50E4BA4
:10061000054601205C7A002C14D1587A1C54587A73
:1006200003EB800045605D7A03F108002A54587A94
:10063000421C5A72303008703A2048702F2088705F
:10064000CC70002030BD00006011002010B51148B2
:1006500001F084FD0F481049022201604FF48271BD
:10066000416000218160C0E903120122426152020F
:1006700082613822C0E90721416281620A21C16298
:1006800001F0B4FD002803D0BDE81040FFF7B9BF6A
:1006900010BD00003C040020003C004070B5044642
:1006A00000F086FA0546601C02D004484068044405
:1006B00000F07EFA401BA042FAD370BD98000020E3
:1006C0002DE9F84F4F4F0025DFF83C91DFF83CA1B2
:1006D000DFF83CB10E460446B84216D04C4514D063
:1006E000544512D05C4510D04A4884420DD04A4847
:1006F00084420AD04948844207D04948844204D001
:100700004FF49A7147A005F097F93004000C01D01E
:10071000300C72D040F2351142A005F08DF96CE03A
:10072000012000FA05F212EA060065D04C4925F0D6
:100730000303194488468B68A9074FEA117C4FF0E0
:100740000F0E0EFA0CF100911940BC4201D10023AA
:100750001BE04C4501D1012317E0544501D1022390
:1007600013E05C4501D103230FE02A4B9C4201D1E9
:1007700004230AE02A4B9C4201D1052305E0264BC5
:100780009C4201D1062300E0072303FA0CF38B42BD
:1007900015D134490B6883430B60091D0B688343F3
:1007A0000B60091D0B6883430B60091D0B688343B5
:1007B0000B600098D8F808108143C8F80810216829
:1007C0006B000320984081432160E90804EB81011C
:1007D000D1F820C06B074FEAD3680EFA08F32CEA71
:1007E000030CC1F820C0E1688143E1606168914376
:1007F0006160A1688143A1606D1C36FA05F08FD15C
:10080000BDE8F88F000002400004024000080240EA
:10081000000C02400010024000180240001C024080
:10082000001402402E2E2F447269766572732F5386
:10083000544D33324C3178785F48414C5F44726993
:100840007665722F5372632F73746D33326C317807
:10085000785F68616C5F6770696F2E6300000000ED
:1008600000000140000401402DE9F84FDFF86C82E0
:100870000027DFF86C92DFF86CB20D460446404565
:1008800016D04C4514D05C4512D0974884420FD006
:10089000964884420CD09648844209D095488442B8
:1008A00006D09548844203D0B12194A005F0C4F845
:1008B00028680104090C01D0000C03D0B2218FA0DC
:1008C00005F0BAF868684FF0030A00281FD0012825
:1008D000FCD01128FAD00228F8D01228F6D0B0F5B2
:1008E000881FF3D0B0F5041FF0D0B0F5441FEDD051
:1008F000B0F5901FEAD0B0F5081FE7D0B0F5481F5B
:10090000E4D00328E2D0B3217CA005F095F8DEE026
:100910000120B840009006407ED0287900F0030006
:10092000012801D002281DD1E86848B1012807D06C
:10093000022805D0032803D0C32170A005F07CF85D
:10094000A0687A000AFA02F18843E96891400143FD
:10095000A1606068009988432979C1F30011B9400A
:10096000014361602879C043800712D0A86838B17C
:10097000012805D0022803D0D42160A005F05CF83E
:10098000E0687A000AFA02F18843A96891400143BD
:10099000E160287900F0030002282CD1444516D0EC
:1009A0004C4514D05C4512D04F4884420FD04F487C
:1009B00084420CD04E48844209D04E48844206D02E
:1009C0004D48844203D0E1214CA005F035F8286958
:1009D0000F2803D9E22149A005F02EF8F80804EB0E
:1009E0008003186A7907CA0E0F219140884329694C
:1009F00091400143196220687A000AFA02F18843A3
:100A0000297901F00301914001432160686810F4E5
:100A1000403F5BD0484800E058E0016841F00101E8
:100A20000160006827F0030100F0010000904348D6
:100A300001448868BA07130F0F229A409043444537
:100A400001D100221CE04C4501D1012218E05C4597
:100A500001D1022214E0244A944201D103220FE082
:100A6000224A944201D104220AE0234A944201D14D
:100A7000052205E01E4A944201D1062200E0072229
:100A80009A4002438A602E4908686A68B043D203DC
:100A900000D5304308602A49091D08686A68B043D8
:100AA000920300D5304308602549083108686A6818
:100AB000B043D20200D53043086021490C310868A8
:100AC0006A68B043920200D5304308607F1C2868F2
:100AD0000646F8407FF41CAFBDE8F88F00000240E6
:100AE0000004024000080240000C024000100240D6
:100AF00000180240001C0240001402402E2E2F4419
:100B00007269766572732F53544D33324C31787855
:100B10005F48414C5F4472697665722F5372632F50
:100B200073746D33326C3178785F68616C5F6770B5
:100B3000696F2E6300000000203802400000014071
:100B40000004014070B515460C00064604D14FF470
:100B5000D07108A004F070FF45B1012D04D040F21F
:100B6000A11104A004F068FFB46170BD2004B0615D
:100B700070BD00002E2E2F447269766572732F535C
:100B8000544D33324C3178785F48414C5F44726940
:100B90007665722F5372632F73746D33326C3178B4
:100BA000785F68616C5F6770696F2E63000000009A
:100BB0000148806870470000980000200248816862
:100BC00042681144816070479800002010B50024ED
:100BD000032000F0E9F80F2000F008F808B1012424
:100BE00001E000F03BF8204610BD000000B50146D2
:100BF00087B000221C2000F087F81C2000F052F87B
:100C00001348016841F001010160006805A900F086
:100C100001000690684600F0FFFE00F047FF0D4916
:100C20004FF08042B0FBF1F10B48491E0260416079
:100C300040F2E7320021C0E90321816001F0C6FEE5
:100C400010B1012007B000BD034801F075FFF9E7BE
:100C50002438024040420F00D4040020104882B0E3
:100C6000016841F000410160016801F0004100911C
:100C7000011F0A6842F001020A60096801F00101DF
:100C80000091016841F0805101600068002200F08D
:100C9000805000900F21901E02B000F035B8000087
:100CA0002438024010B5040003D5D82107A004F071
:100CB000C3FE002C09DB04F01F01012088406109FC
:100CC000890001F1E021C1F8000110BD2E2E2F4452
:100CD0007269766572732F53544D33324C31787884
:100CE0005F48414C5F4472697665722F5372632F7F
:100CF00073746D33326C3178785F68616C5F636FE9
:100D0000727465782E63000070B515460C46064671
:100D1000102A03D3C42114A004F08EFE102C03D398
:100D2000C52111A004F088FE1E480068C0F302230C
:100D3000C3F107022046042A00D90422191D0729FD
:100D400001D2002300E0DB1E012404FA02F1491E57
:100D5000014099409C40641E2C4021433046BDE830
:100D6000704004F059BE00002E2E2F447269766543
:100D700072732F53544D33324C3178785F48414C65
:100D80005F4472697665722F5372632F73746D338B
:100D9000326C3178785F68616C5F636F727465780C
:100DA0002E6300000CED00E010B5044607280BD0C0
:100DB000062C09D0052C07D0042C05D0032C03D019
:100DC000AC2108A004F038FE154904F007020868B9
:100DD0004FF6FF03184040EA0220124A1043086011
:100DE00010BD00002E2E2F447269766572732F534A
:100DF000544D33324C3178785F48414C5F447269CE
:100E00007665722F5372632F73746D33326C317841
:100E1000785F68616C5F636F727465782E63000041
:100E20000CED00E00000FA0510B50C0607D501F046
:100E3000070101EB810100EBC100283005E001EB67
:100E4000810100EBC10000F5B47099B232B101220A
:100E500002730181190C4181002010BD0022027330
:100E6000C180F9E705480129416803D021F001015B
:100E70004160704741F00101FAE7000000000140C5
:100E800001EB810200EBC202D0F8E802D26B03F062
:100E900074BB01EB810200EBC202D0F8E802D2F889
:100EA0007C2103F0CDBB70B504460B0601F00700B2
:100EB00000EB800104EBC1014FF001024FF000058F
:100EC00003D581F82920283103E081F8695101F523
:100ED000B471087094F8A802012808D084F8A822F8
:100EE000206804F056F984F8A852002070BD022052
:100EF00070BD70B5044601F00F006268904201D9E0
:100F0000012070BD0B0601F0070000EB800104EB2F
:100F1000C1014FF001024FF0000503D581F82920EF
:100F2000283103E081F8695101F5B4718D700870C2
:100F300094F8A802012808D084F8A822206804F0B8
:100F4000C1F984F8A852002070BD022070BD2DE9BF
:100F5000F05F04685FEA424C0B788D69B4F850C0CA
:100F60004FF000064BF68F7948F2800A48F68F7BE7
:100F700048F2C00E4FF480672AD54FF0020808EB04
:100F8000C308C44407EB4C07E45BC4F30904A5425F
:100F900003D32D1B8D6101D00BE08E61066836F8FE
:100FA000235005EA090585F4005545EA0A0526F8A7
:100FB0002350520609D50D78036833F8252002EA3C
:100FC0000B0242EA0E0223F8252084B30A8929E0A5
:100FD0004FF0060808EBC308C44407EB4C07E45B7A
:100FE000C4F30904A54203D32D1B8D6101D00BE08E
:100FF0008E61066836F8235005EA090585F4005528
:1010000045EA0A0526F82350520609D40B780568EC
:1010100035F8232002EA0B0242EA0E0225F82320CB
:101020002CB14A8949690068234604F0BBFC20467C
:10103000BDE8F09F2DE9F05F054600680C465FEAC9
:10104000426C16468B692278B0F850C048F68F770C
:101050004CF280094FF6FF7B4FF4004E4FF4806A4C
:101060004FF000017BD54FF0020808EBC208E044C6
:101070000AEB480C30F80C00C0F30900834211D988
:101080001B1AA3610FD0730407D52E6836F82230DF
:101090003B4043EA090326F8223094F82420012A31
:1010A00050D04EE1A161607810B1012813D01AE050
:1010B0002868B0F85030184400EB0210B0F804244F
:1010C00022F4F842A0F80424B0F8042442F40042C8
:1010D000A0F8042407E02868B0F85030184400EB6A
:1010E0000210A0F804146278286812B1012A11D005
:1010F00018E0B0F850100844217800EB0110B0F867
:101100000C1421F4F841A0F80C14B0F80C1441F4BC
:10111000004105E0B0F850201044227800EB0210A6
:10112000A0F80C1421782846FFF7AAFE7004B8D561
:1011300021782A6832F82100384040EA090022F874
:101140002100FEE0626902446261E2690244E261F8
:101150002369226A9A4203D31846111A04E038E040
:1011600084F824100AB110462162617811B1012976
:1011700023D02BE02968B1F850201144227801EBEC
:10118000021101F2044148B13E280FD84208C307BA
:1011900000D0521C0BEA82220A8017E00A8822F44F
:1011A000F8420A800A8842F40042F5E74209C30681
:1011B00000D1521E4EEA8222EEE72968B1F8502093
:1011C0001144227801EB0211A1F8040483B22289B0
:1011D000B3E04FF0060808EBC208E0440AEB480C05
:1011E00030F80C00C0F30900834211D31B1AA3612D
:1011F0000FD0730407D42E6836F822303B4043EA00
:10120000090326F8223094F82420012A50D098E0CF
:10121000A161607810B1012813D01AE02868B0F8F5
:101220005030184400EB0210B0F8042422F4F842C5
:10123000A0F80424B0F8042442F40042A0F80424E6
:1012400007E02868B0F85030184400EB0210A0F80E
:1012500004146278286812B1012A11D018E0B0F89D
:1012600050100844217800EB0110B0F80C1421F460
:10127000F841A0F80C14B0F80C1441F4004105E05A
:10128000B0F850201044227800EB0210A0F80C14A3
:1012900021782846FFF7F4FD700452D4227829689B
:1012A00031F82200384040EA090021F8220048E0E5
:1012B000626902446261E2690244E2612369226A6E
:1012C0009A4203D31846111A216204E00AB110466B
:1012D000216284F824106278296812B1012A22D090
:1012E00029E0B1F850201144227801EB021101F2FB
:1012F0000C4148B13E280FD84208C30700D0521C09
:101300000BEA82220A8016E00A8822F4F8420A8058
:101310000A8842F40042F5E74209C30600D1521E92
:101320004EEA8222EEE7B1F850201144227801EB18
:101330000211A1F80C04628983B26169286804F083
:101340004DFB21782A6832F8210048F6BF73184017
:1013500080F0300048F28003184322F8210000207A
:10136000BDE8F09F0020704701F0070101EB81010B
:1013700000EBC100D0F8840170472DE9F04104462C
:101380000F0601F0070000EB800104EBC1014FF0F4
:1013900001064FF0000503D581F82960283103E0EC
:1013A00081F8695101F5B47108700A61CB704A780F
:1013B00002B1C881022B00D10D7194F8A802012856
:1013C00009D084F8A862206803F0B7FD284684F8A5
:1013D000A852BDE8F0810220FBE770B50C4601F091
:1013E000070505EB850100EBC101C1E95F23002280
:1013F000C1F8842181F8692181F8685101F5B4713F
:101400006207006803F0B4FF002070BD70B50446A9
:1014100001F007006268904201D9012070BD0B06FF
:101420004FF000054FF0010207D500EB800104EBFF
:10143000C10181F82920283107E001EB810104EB8B
:10144000C10181F8695101F5B4718A70087094F88E
:10145000A802012808D084F8A822206803F06EFFB3
:1014600084F8A852002070BD022070BD70B50C46F3
:1014700001F0070505EB850100EBC101C1E90F2370
:10148000012281F84C208B6400234B6481F82920D1
:1014900001F8285F6207006803F06AFF002070BD52
:1014A00010B50446006804F079FA000402D520461D
:1014B00002F09AF8206804F071FA40050CD5206813
:1014C00030F8441F21F480610180204600F000F9CB
:1014D0000021204600F017F9206804F05FFA40046C
:1014E00005D5206830F8441F21F480410180206830
:1014F00004F054FA800405D5206830F8441F21F424
:1015000000510180206804F049FAC00414D5206815
:1015100030F8401F21F004010180206830F8401F9E
:1015200021F008010180204600F0E5F8206830F83D
:10153000441F21F480510180206804F02FFA000537
:1015400014D5206830F8401F41F008010180206860
:1015500030F8441F21F400610180206830F8401FFA
:1015600041F004010180204600F002F9206804F0F7
:1015700015FA800508D5206830F8441F21F4007161
:101580000180204600F0BBF8206804F007FAC0058F
:1015900005D5206830F8441F21F48071018010BD0A
:1015A00070B586B004000CD02B492068884203D067
:1015B00085212AA004F040FA94F8A902002518B168
:1015C00007E0012006B070BD84F8A852204600F064
:1015D00061F8032084F8A902206803F06CFE002063
:1015E00001260EE000EB800104EBC10181F82960C7
:1015F00001F8280FC881CD700D614D61401CC0B24B
:101600008D6161688142EDD8002011E000EB80011E
:1016100004EBC10181F8695181F8680181F86B51CF
:10162000C1F87851C1F87C51401CC0B2C1F880515A
:1016300061688142EAD8142204F110016846FEF77D
:1016400007FF94E80F0003F02DFE84F8245084F87F
:10165000A9620020B6E70000005C00402E2E2F4457
:101660007269766572732F53544D33324C317878EA
:101670005F48414C5F4472697665722F5372632FE5
:1016800073746D33326C3178785F68616C5F70634E
:10169000642E630008B500680B49884212D10B48DC
:1016A000016841F4000101600068002200F40000BC
:1016B000009005211420FFF727FBBDE80840142007
:1016C000FFF7F0BA08BD0000005C0040243802407B
:1016D00070B5044680680125022801D0FEF791FF0D
:1016E0002946D4F8E80203F0A4F8D4F8E802BDE8EB
:1016F000704003F064B8D0F8E80203F088B8D0F87E
:10170000E80203F08AB810B5044690F8A802012850
:101710000BD0012084F8A80284F82410206804F07B
:1017200057F9002084F8A80210BD022010BDD0F89F
:10173000E82200F52C71104603F087B810B5044676
:1017400090F8A802012810D0012084F8A80220688F
:1017500004F014F901212046FFF784FB206803F010
:101760009FFD002084F8A80210BD022010BD0000DB
:1017700010B50446D0F8E80203F0A6F8A0690028E6
:1017800004D00348016841F00601016010BD00006B
:1017900010ED00E02DE9F0470E46040076D036B19A
:1017A000012E04D040F22A3188A004F045F9DFF878
:1017B0005482D8F8000000F00100B04214D2012E8B
:1017C00005D1D8F8001041F00401C8F80010D8F88D
:1017D000001021F001013143C8F80010D8F80000D2
:1017E00000F00100B04251D12078874D80071CD510
:1017F000A068A0B1802812D0902810D0A0280ED0C8
:10180000B0280CD0C0280AD0D02808D0E02806D0B4
:10181000F02804D040F241316CA004F00DF92868A2
:10182000A16820F0F000084328602078C0076BD042
:10183000754F6068083F88B101282ED0022826D055
:10184000032827D04FF4527160A004F0F5F86068C7
:1018500002281CD003281DD001281ED0386880051E
:10186000002868DA2868616820F0030008432860CF
:10187000FFF79EF96168074641F28830022915D0CA
:10188000032921D0012981462BD039E053E0386863
:101890008003E5E738688001E2E738688007DFE722
:1018A000FFF786F9C11B494501D926E08146286822
:1018B000C0F381000228F3D126E000BFFFF778F9DA
:1018C000C11B494501D918E081462868C0F3810051
:1018D0000328F3D118E000BFFFF76AF9C11B49459F
:1018E0000BD82868C0F381000128F5D10CE000BFB7
:1018F000FFF75EF9C11B494502D90320BDE8F08717
:10190000286810F00C0FF3D1D8F80010404601F011
:101910000101B14211D9012E03D1016841F0040146
:101920000160016821F0010131430160006800F0AD
:101930000100B04201D00120E0E720784FF480663A
:1019400040074FF4A0674FF4C0684FF4E06914D526
:10195000E06860B1B0420AD0B84208D0404506D035
:10196000484504D040F2AD3118A004F065F828686D
:10197000E16820F4E060084328602078000715D56E
:10198000206960B1B0420AD0B84208D0404506D0C4
:10199000484504D04FF46D710CA004F04DF8286850
:1019A000216920F4605040EAC100286000F08EF800
:1019B0002968164AC1F30311515CC84014490860F4
:1019C00014480068BDE8F047FFF710B92E2E2F44E9
:1019D0007269766572732F53544D33324C31787877
:1019E0005F48414C5F4472697665722F5372632F72
:1019F00073746D33326C3178785F68616C5F7263D9
:101A0000632E6300003C024008380240CD7B000892
:101A1000A40000209800002070B50D46040004D1F9
:101A200040F2FA4111A004F007F825B940F2FB4159
:101A30000EA004F001F80F2020601A48016801F0A0
:101A400003016160016801F0F001A160016801F427
:101A5000E061E16000684FF4E06101EAD0002061DC
:101A60001148006800F00100286070BD2E2E2F4440
:101A70007269766572732F53544D33324C317878D6
:101A80005F48414C5F4472697665722F5372632FD1
:101A900073746D33326C3178785F68616C5F726338
:101AA000632E630008380240003C024004480549A8
:101AB00000680968044AC1F30221515CC8407047BC
:101AC000A400002008380240DD7B000870B5154DE9
:101AD0002968154801F00C02042A0CD04410082A89
:101AE0000AD00C2A0AD0281F0068C0F342314FF4F4
:101AF0000040491C884070BD204670BD0B4AC1F3B0
:101B00008343D35CC1F381522968521CC90302D5B7
:101B1000A3FB040101E0A3FB00010023FEF7DCFBB3
:101B200070BD0000083802400024F400C47B0008A7
:101B30002DE9F84F04007DD0206870B1C1070CD1A9
:101B400081070AD4010708D4410706D4C00604D48B
:101B50004FF4A871EEA003F06FFFFB480168006826
:101B600001F00C0700F480362078F84DC0074CD007
:101B7000606840B1012806D0052804D040F2591110
:101B8000E3A003F059FF082F12D00C2F02D1B6F5B5
:101B9000803F0DD06068012811D008B1052818D009
:101BA000286820F480302860286820F4802009E02C
:101BB0002868800329D560680028BCD025E0286803
:101BC00040F480302860606890B1FEF7F1FF8046F5
:101BD0000AE0286840F480202860F0E7FEF7E8FF7C
:101BE000A0EB080064287DD828688003F6D50CE0B7
:101BF000FEF7DEFF804605E0FEF7DAFFA0EB080007
:101C00006428F0D828688003F6D42078DFF840B341
:101C1000DFF8408380074FF001094FF0000A4FD5ED
:101C2000E06830B1012804D04FF4C671B8A003F0C9
:101C300003FF00E098E020691F2804D940F28D11CD
:101C4000B3A003F0F9FE042F0AD00C2F00D13EB14F
:101C5000E06838B3C8F80090FEF7AAFF064614E023
:101C60002868800702D5E06801287DD1DBF80010E4
:101C7000584621F4F852216942EA012110E000BFE0
:101C8000FEF796FF801B0228ADD828688007F7D59D
:101C9000DBF800105846226921F4F85141EA02218C
:101CA00001600DE0C8F800A0FEF782FF064604E0E0
:101CB000FEF77EFF801B022895D828688007F7D49E
:101CC0002078C0067AD5A7B1A069002877D001286E
:101CD00007D04FF402718EA003F0AEFEA069002879
:101CE000F4D000E0DDE0C8F82090FEF761FF064682
:101CF0006BE02868800502D5A069002834D0E0692F
:101D0000FF2804D940F2D71181A003F095FE206A84
:101D1000B0B1B0F5005F13D0B0F5804F10D0B0F582
:101D2000C04F0DD0B0F5004F0AD0B0F5204F07D00E
:101D3000B0F5404F04D04FF4EC7175A003F07CFE79
:101D4000206ADBF800105E4601F46041884211D938
:101D500001F0D4FD002888D13068216A20F4604069
:101D600008433060217F00E0F0E1306861F31F60DC
:101D700030600EE0316821F4604101433160217F21
:101D8000306861F31F603060206A01F0B7FD002801
:101D9000E1D1216A4FF4004009EB513188406A4992
:101DA00009686D4AC1F30311515CC8406B49086072
:101DB0006B480068FEF71AFF002871D148E038E050
:101DC000FEF7F6FE801B02286BD828688005F7D541
:101DD000E069FF2804D94FF407714DA003F02CFEF1
:101DE000206AB0B1B0F5005F13D0B0F5804F10D0CD
:101DF000B0F5C04F0DD0B0F5004F0AD0B0F5204F70
:101E000007D0B0F5404F04D040F21D2140A003F0B0
:101E100013FEDBF80010226A21F460411143CBF875
:101E20000010227FDBF8001062F31F61CBF8001076
:101E30000EE0C8F820A0FEF7BBFE064605E000BF96
:101E4000FEF7B6FE801B0228BED828688005F7D4AE
:101E50002078444E00072ED5DFF80CB16069C8B178
:101E6000012806D04FF40F7129A003F0E5FD606949
:101E700080B1CBF80090FEF79BFE834606E000BFE2
:101E8000FEF796FEA0EB0B0002289DD83068800775
:101E9000F6D510E0CBF800A0FEF78AFE834607E0F7
:101EA0003AE1FDE0FEF784FEA0EB0B0002288BD8A0
:101EB00030688007F6D42078400771D5A0684FF0CD
:101EC000000B40B1012806D0052804D04FF41A7148
:101ED0000FA003F0B1FD234810380068C0000BD4F8
:101EE00020481038016841F08051016000684FF0CF
:101EF000010B00F0805000901C480168C90541D4D6
:101F0000016841F480710160FEF752FE009035E0F7
:101F10002E2E2F447269766572732F53544D3332CF
:101F20004C3178785F48414C5F4472697665722F16
:101F30005372632F73746D33326C3178785F6861DC
:101F40006C5F7263632E6300083802400038024001
:101F50000438024000004742CD7B0008A400002066
:101F6000980000203438024080064742007000404C
:101F7000FEF71EFE0099401A642886D8754800684E
:101F8000C005F5D5A06801280BD008B1052812D0EE
:101F9000306820F480703060306820F4806003E0A6
:101FA00031E0306840F480703060A068A0B1FEF786
:101FB000FFFD00900CE0306840F480603060F0E796
:101FC000FEF7F6FD0099411A41F28830814267D848
:101FD00030688005F4D50EE0FEF7EAFD009007E0DA
:101FE000FEF7E6FD0099411A41F28830814257D848
:101FF00030688005F4D4BBF1000F04D05648016866
:1020000021F080510160606A002848D0012809D081
:10201000022807D04FF42B71AFF20C1003F00CFD27
:10202000606AE0B30C2F7DD0022805D0C8F860A00C
:10203000FEF7BEFD044671E0A06A40B1B0F5803FF6
:1020400005D040F2B521AFF2381003F0F5FCE06A9C
:10205000E8B1B0F5802F1AD0B0F5002F17D0B0F549
:10206000402F14D0B0F5801F11D0B0F5A01F0ED0B6
:10207000B0F5C01F0BD0B0F5E01F08D0B0F5001FC1
:1020800005D040F2B621AFF2781003F0D5FC206BFA
:10209000B0F5800F0ED0B0F5000F0BD001E057E087
:1020A00039E0B0F5400F05D040F2B721AFF2A010F3
:1020B00003F0C2FC4746C8F860A0FEF779FD06466B
:1020C00005E000BFFEF774FD801B022823D82868B6
:1020D0008001F7D4D4E90A1001431F48226B1C3851
:1020E000036823F47D031A4311430160C7F860902D
:1020F000FEF75EFD044604E0FEF75AFD001B0228D1
:1021000009D828688001F7D522E00BE0FEF750FDE2
:10211000001B022802D90320BDE8F88F286880013F
:10212000F4D415E00128F7D00B481C380068A26AE7
:1021300000F48031914209D1E26A00F470119142B9
:1021400004D1216B00F44000884201D00120E3E774
:102150000020E1E7007000402438024010B5040080
:1021600020D01149206888420AD01049884207D0FF
:102170000F49884204D040F2C7110EA003F05CFC66
:10218000022084F851002068016821F040010160BC
:10219000204600F051F90020606584F8510084F871
:1021A000500010BD012010BD00300140003800403B
:1021B000003C00402E2E2F447269766572732F53B7
:1021C000544D33324C3178785F48414C5F447269EA
:1021D0007665722F5372632F73746D33326C31785E
:1021E000785F68616C5F7370692E630070B504007E
:1021F0007ED08049206888420AD07F49884207D033
:102200007E49884204D04FF4A1717DA003F014FCF4
:1022100060684FF4827630B1B04204D040F243118E
:1022200077A003F009FCA06850B1B0F5806F07D02B
:10223000B0F5004F04D04FF4A27171A003F0FCFB85
:10224000E068B0F5006F05D020B140F245116CA0F8
:1022500003F0F2FBA069B0F5007F08D038B1B0F50B
:10226000802F04D04FF4A37165A003F0E5FBE06973
:1022700090B1082810D010280ED018280CD0202893
:102280000AD0282808D0302806D0382804D040F2B8
:1022900047115BA003F0D0FB206A30B1802804D046
:1022A0004FF4A47156A003F0C7FB606A002548B341
:1022B000102806D040F24B1151A003F0BDFB606A1C
:1022C00000B3E06990B1082810D010280ED018286B
:1022D0000CD020280AD0282808D0302806D038284A
:1022E00004D040F25D1146A003F0A6FB256100E09A
:1022F00006E06561A56294F85100002830D034E012
:10230000012070BD206930B1022804D04FF4A771BC
:102310003BA003F091FB606930B1012804D040F28A
:102320004F1137A003F088FB6068B04216D1E06916
:102330000028DFD00828DDD01028DBD01828D9D01D
:102340002028D7D02828D5D03028D3D03828D1D0AD
:1023500040F253112AA003F06FFBCBE7E561C9E718
:1023600084F85050204600F07DF8022084F8510097
:102370002068016821F040010160A088218900F4F3
:10238000827001F404410843A18901F4006108430B
:10239000217C01F002010843217D01F00101084385
:1023A000218B01F400710843217F01F038010843BB
:1023B00094F8201001F080010843218D01F40051B0
:1023C000084321680860A069042101EA104094F8DC
:1023D000241001F010010843216848602068C16999
:1023E00021F40061C1616565012084F8510000207D
:1023F00070BD00000030014000380040003C00404B
:102400002E2E2F447269766572732F53544D3332DA
:102410004C3178785F48414C5F4472697665722F21
:102420005372632F73746D33326C3178785F6861E7
:102430006C5F7370692E630000680749884209D198
:102440000648016821F4004101604FF4E05104485E
:10245000FEF736B970470000003C004024380240C7
:102460000008024010B586B0044614216846FEF705
:1024700021F814492068884221D11348016841F4A9
:1024800000410160006800F4004005900E480838E3
:10249000016841F0040101600068694600F0040031
:1024A00005904FF4E050009002200190002002902F
:1024B00003200390062004900448FEF7D5F906B0E7
:1024C00010BD0000003C00402438024000080240DB
:1024D0002DE9F84F044680681D46164689460027B8
:1024E00038B1B0F5004F04D040F2113157A003F0DD
:1024F000A3FA94F8500001280ED04FF0010B84F895
:1025000050B0FEF755FB804694F851004FF0000A9A
:10251000012804D0022793E00220BDE8F88FB9F12A
:10252000000F73D0002E71D0032084F85100C4F83E
:1025300054A0C4F83090A686E686C4F838A0A4F863
:102540003CA0A4F83EA0C4F844A0C4F840A0A068F1
:10255000B0F5004F09D12068016821F04001016009
:102560002068016841F480410160206801684906E3
:1025700003D4016841F040010160E068B0F5006FEC
:10258000606803D030B3012E24D041E008B1012EA1
:102590001CD1206B21680088C86006E02068816833
:1025A000890709D5216B0988C160206B801C2063D5
:1025B000E08E401EE08609E0FEF7FAFAA0EB080084
:1025C000A84202D3681C01D031E07DB3E08E002820
:1025D000E4D120E0206B21680078087306E02068D1
:1025E0008168890709D5216B09780173206B401C2C
:1025F0002063E08E401EE0860AE0FEF7D9FAA0EBE9
:102600000800A84203D3681C02D010E017E06DB1A7
:10261000E08E0028E3D142462946204601F06EFCB8
:1026200008B120206065A06818B106E0FFE7032725
:1026300006E02068C16880680090606D00B10127E5
:1026400084F851B084F850A0384666E72E2E2F4407
:102650007269766572732F53544D33324C317878EA
:102660005F48414C5F4472697665722F5372632FE5
:1026700073746D33326C3178785F68616C5F73703E
:10268000692E63002DE9F84F04460A9E80681D46B6
:1026900092468B464FF00109002720B140F2854158
:1026A00074A003F0C9F994F8500001280ED001205D
:1026B00084F85000FEF77CFA804694F85100616877
:1026C00001280CD0B1F5827F07D102E00220BDE8DD
:1026D000F88FA16809B9042801D00227C2E0BBF134
:1026E000000F27D0BAF1000F24D01DB394F8510089
:1026F000042802D0052084F8510000206065C4F849
:1027000038A0E587A587C4F830B0E586A5862064A3
:10271000606420680168490603D4016841F0400103
:102720000160E068B0F5006F606805D0F0B3012D7E
:1027300046D07FE0012795E008B1012D39D1206B0B
:1027400021680088C860206B801C2063E08E401EDA
:10275000E0862EE02068816889070FD5E18E69B197
:10276000B9F1010F0AD1216B0988C160206B801C6F
:102770002063E08E401EE0864FF0000920688168EB
:10278000C9070CD0E18F51B1C068A16B0880A06B64
:10279000801CA063E08F401EE0874FF00109FEF728
:1027A00007FAA0EB0800B04203D300E008E0701C79
:1027B00050D1E08E0028CDD1E08F0028CAD13FE073
:1027C000206B216800780873206B401C2063E08E2A
:1027D000401EE0862EE02068816889070FD5E18ED3
:1027E00069B1B9F1010F0AD1216B09780173206B2E
:1027F000401C2063E08E401EE0864FF000092068F8
:102800008168C9070CD0E18F51B1C068A16B087015
:10281000A06B401CA063E08F401EE0874FF00109D1
:10282000FEF7C6F9A0EB0800B04202D3701C01D03D
:1028300010E07EB1E08E0028CDD1E08F0028CAD113
:1028400042463146204601F059FB28B1012720209D
:10285000606507E0032705E0A06818B92068C16833
:1028600080680090012084F85100002084F8500016
:1028700038462CE72E2E2F447269766572732F53DB
:10288000544D33324C3178785F48414C5F44726923
:102890007665722F5372632F73746D33326C317897
:1028A000785F68616C5F7370692E63002DE9F04793
:1028B000044600684FF080492F4E304FDFF8C0804B
:1028C0000D46484512D0B04210D0B8420ED02D4926
:1028D00088420BD02C49884208D02C49884205D028
:1028E000404503D05A212AA003F0A6F8286888B1F1
:1028F00010280FD020280DD030280BD0402809D028
:10290000502807D0602805D0702803D05B2120A074
:1029100003F092F86868802804D018B15C211CA0EC
:1029200003F08AF894F83800012823D0012284F8B3
:102930003820022084F83900216848688B6820F02C
:10294000700C286840EA0C0048602068484505D0B3
:10295000B04203D0B84201D0404504D1696823F0A9
:1029600080031943816084F83920002084F83800FE
:10297000BDE8F0870220FBE70004004000080040AB
:1029800000080140000C004000100040001400400E
:102990002E2E2F447269766572732F53544D333245
:1029A0004C3178785F48414C5F4472697665722F8C
:1029B0005372632F73746D33326C3178785F686152
:1029C0006C5F74696D5F65782E63000010B504005C
:1029D00049D02068B0F1804F1CD03249884219D0CC
:1029E0003149884216D03149884213D03049884253
:1029F00010D0304988420DD02F4988420AD02F4943
:102A0000884207D02E49884204D04FF48B712DA004
:102A100003F012F8A06860B110280AD0202808D06E
:102A2000402806D0602804D040F2171125A003F0FA
:102A300003F8206950B1B0F5807F07D0B0F5007F72
:102A400004D04FF48C711FA002F0F6FF606930B122
:102A5000802804D040F219111AA002F0EDFF94F87A
:102A6000390010B107E0012010BD002084F83800C3
:102A7000204600F043F8022084F83900211D206828
:102A800001F04AFB012084F83E0084F83A0084F803
:102A90003B0084F83C0084F83D0084F839000020B5
:102AA00010BD00000004004000080040000C004081
:102AB000001000400014004000080140000C0140DC
:102AC000001001402E2E2F447269766572732F53C9
:102AD000544D33324C3178785F48414C5F447269D1
:102AE0007665722F5372632F73746D33326C317845
:102AF000785F68616C5F74696D2E630008B500686B
:102B00000B49884212D10B48016841F00201016073
:102B10000068002200F00200009005211D20FEF751
:102B2000F3F8BDE808401D20FEF7BCB808BD000062
:102B300000040040243802402DE9F04104460068BA
:102B40004FF08048204D214E214F404519D0A842DA
:102B500017D0B04215D01F49884212D01E49884272
:102B60000FD01E4988420CD0B8420AD01C49884276
:102B700007D01C49884204D04FF4E8711AA002F033
:102B80005BFF94F83900012802D00120BDE8F081F4
:102B9000022084F839002068C16841F00101C16059
:102BA0002068404505D0A84203D0B04201D0B842C9
:102BB00004D1816801F00701062903D0016841F0C2
:102BC000010101600020E1E700040040000800402E
:102BD00000080140000C00400010004000140040BC
:102BE000000C0140001001402E2E2F4472697665C2
:102BF00072732F53544D33324C3178785F48414CC7
:102C00005F4472697665722F5372632F73746D33EC
:102C1000326C3178785F68616C5F74696D2E630027
:102C20002DE9F05F054690F838000C46012842D0A7
:102C30004FF0010B85F838B0022085F83900206884
:102C40004FF480594FF40056484515D0B04213D088
:102C500090B1102810D020280ED030280CD0402859
:102C60000AD0502808D0602806D0702804D041F23D
:102C70002E31BFA002F0E0FE2868816821F07701C4
:102C800021F47F418160C848D4F800C0C749C84AD0
:102C9000C84BC7134FF08048BCF1500F7ED014DCF6
:102CA000BCF1200F06D009DCBCF1000FFAD0BCF15A
:102CB000100F5DD148E10220BDE8F09FBCF1300F5C
:102CC000F8D0BCF1400FF4D111E1BCF1600F66D037
:102CD000BCF1700F6BD0DFF8E092DFF8E0A2BCF53A
:102CE000805F46D0B445E4D1D5F800C0C44510D0CB
:102CF00084450ED08C450CD094450AD09C4508D014
:102D0000CC4506D0D44504D041F2593198A002F008
:102D100093FEA06860B1B0F5805F09D0B04207D0E3
:102D2000B0F5405F04D041F25C3191A002F084FE26
:102D30006068B84209D040B1022806D00A2804D001
:102D400041F25D318AA002F077FEE0680F2804D9D5
:102D500041F25E3186A002F06FFED4E90121E36802
:102D6000286801F01BFA2868816841F4804181607D
:102D7000B7E02C684445FBD08442F9D08C42F7D0B0
:102D80009442F5D08E488442F2D08E488442EFD0EF
:102D90009C42EDD04C45EBD0544501E046E072E05A
:102DA000E6D041F23A3172A002F046FE99E0D5F841
:102DB00000C0C4450CD084450AD08C4508D0944549
:102DC00006D09C4504D041F2413169A002F034FEA6
:102DD000A06858B1484509D0B04207D0B0F5405F6F
:102DE00004D041F2443162A002F026FE6068B8428D
:102DF00009D040B1022806D00A2804D041F245315A
:102E00005BA002F019FEE0680F2804D941F24631B8
:102E100057A002F011FED4E90121E368286801F00F
:102E2000BDF92868816841F07701A0E72E68464522
:102E30000CD086420AD08E4208D0964206D09E42DE
:102E400004D041F26D314AA002F0F6FD6068B8424C
:102E500009D040B1022806D00A2804D041F27031CE
:102E600043A002F0E9FDE0680F2804D941F2713176
:102E70003FA002F0E1FDE2686168286801F0A0F976
:102E8000502128682BE02E6846450CD086420AD097
:102E90008E4208D0964206D09E4204D041F27D3147
:102EA00033A002F0C9FD6068B84209D040B10228E1
:102EB00006D00A2804D04FF49C512DA002F0BCFD8E
:102EC000E0680F2804D941F2813129A002F0B4FD55
:102ED000E2686168286801F084F96021286801F0DF
:102EE00067F985F839B0002085F83800E4E62E68E7
:102EF00046450CD086420AD08E4208D0964206D073
:102F00009E4204D041F28D3119A002F095FD606817
:102F1000B84209D040B1022806D00A2804D041F2B4
:102F2000903113A002F088FDE0680F2804D941F227
:102F300091310FA002F080FDE2686168286801F01D
:102F40003FF940212868CAE72E6846450CD08642E2
:102F50000AD08E4208D0964206D09E4204D04FF44A
:102F60009D5103A002F068FD21682868B7E70000C2
:102F70002E2E2F447269766572732F53544D33325F
:102F80004C3178785F48414C5F4472697665722FA6
:102F90005372632F73746D33326C3178785F68616C
:102FA0006C5F74696D2E63000004004000080040EF
:102FB000000C004000080140000C014000100140DE
:102FC0000010004000140040704770B504460068CF
:102FD00001694FF00005C943890715D4C168C94389
:102FE000890711D4E91E01610120207620688069DB
:102FF0008007204602D0FFF7E7FF04E000F078F8F2
:10300000204600F076F8257620680169C943490713
:1030100017D4C168C943490713D46FF00401016193
:10302000022020762068806910F4407F204602D07C
:10303000FFF7CAFF04E000F05BF8204600F059F803
:10304000257620680169C943090716D4C168C943B8
:10305000090712D46FF0080101610420207620686E
:10306000C0698007204602D0FFF7AEFF04E000F001
:103070003FF8204600F03DF8257620680169C943F5
:10308000C90617D4C168C943C90613D46FF010012B
:103090000161082020762068C06910F4407F204636
:1030A00002D0FFF791FF04E000F022F8204600F084
:1030B00020F8257620680169C943C90708D1C1688D
:1030C000C943C90704D1891E0161204600F012F8E6
:1030D00020680169C943490609D4C168C943490642
:1030E00005D46FF040010161204600F00AF870BD80
:1030F000704770470068B0F1804F01D1FDF75EBDA9
:1031000070477047FEE70000F0B500230A24302521
:1031100037261F4611E000BFB4EB107F02D905EB44
:10312000107C01E006EB107C01F813C001EB430CAE
:1031300000015B1C8CF80170DBB29342ECD3F0BD54
:1031400010B50446034901F072F80348C4F8900230
:1031500010BD000078010020D813002010B50446EF
:10316000034901F01FFD0348C4F8900210BD0000A0
:10317000700000206C11002070B5D0F89042054618
:1031800094F8180240B9D4F8140228B1607A18B93A
:103190000221284601F086FB8221284601F082FBAD
:1031A000607A022808D104F503722846BDE8704011
:1031B0001F23022101F0FABA70BD000070B5D0F8EB
:1031C000904205460221D4F81002C4F83002D4F827
:1031D0001402C4F83402284601F07CFA1F280DD1ED
:1031E0002849D4F80C02884208D194F81912012910
:1031F00004D894F81A0208B1102809D994F81912C1
:1032000020230522284600F0FFFD0220607209E01D
:1032100004F21B22284600F0C3FB0028207A08DABB
:10322000052804D02846BDE87040FFF7A5BF01215E
:1032300022E0022825D0012823D0032821D0668946
:10324000CEB1D5F89012284604F10C02D1F8143210
:10325000B34200D33346D1F834429BB2A41BC1F829
:103260003442002481F8384204240C72BDE87040D6
:10327000822101F032BB00212846BDE8704000F0F9
:103280007FB870BD5553424310B5D0F89042627A72
:10329000022A08D009060BD5012A09D0BDE8104042
:1032A000012100F06DB8822101F0FCFA002060726B
:1032B00010BD10B5D0F890220446107A022805D02F
:1032C000032801D0042810D1002109E092F8191236
:1032D000204602F21B2200F063FB002805DA0121E0
:1032E0002046BDE8104000F04BB810BD10B5D0F836
:1032F00090220446107A80B1012813D192F8191255
:10330000204602F21B2200F04BFB00280ADA20467E
:10331000BDE81040012100F033B82046BDE8104060
:10332000FFF74CBF10BD70B5D0F8904200210546A4
:103330002172617284F85D1284F85C12D0F89402F4
:103340000168002088470221284601F0BAF982214D
:10335000284601F0B6F904F503722846BDE870402E
:103360001F23022101F022BAD0F8902200211F234E
:10337000117201215172022102F5037201F016BA95
:1033800070B5D0F8904205460B48C4F82C0284F87A
:103390003812002020720D2304F50B72822128467A
:1033A00001F09BFA04F503722846BDE870401F2324
:1033B000022101F0FBB900005553425370B5134987
:1033C0001348FDF720F9114C124DA41E6070002027
:1033D0002070002204212846FDF7B4FB6420FDF78D
:1033E0005DF901220949002002F0CCFD6070012244
:1033F0000649094802F0C6FD60702178491CC9B22F
:103400002170002801D00529E3D970BD1A000020E1
:1034100004000020000C02401405002000B587B015
:103420001C2206496846FDF713F80021684603F0A0
:1034300043F80349086007B000BD0000847B000822
:10344000000000202DE9F04186B014216846FDF708
:1034500031F83348016841F004010160016801F06E
:1034600004010591016841F020010160016801F04B
:1034700020010591016841F001010160016801F03E
:1034800001010591016841F002010160016801F04C
:1034900002010591016841F0080101600068012204
:1034A00000F008001F4ED703059039463046FDF75F
:1034B00049FBDFF87480012204214046FDF742FBFE
:1034C0004EF2FF30032400258DE83100694617488D
:1034D000FDF7CAF940F2FF708DE8310069463046C9
:1034E000FDF7C2F94FF6FF708DE8310069461048CC
:1034F000FDF7BAF90124CDE900740225694630468A
:10350000CDE90245FDF7B0F90420CDE90004694694
:103510004046CDE90245FDF7A7F906B0BDE8F081C8
:103520001C38024000000240000C0240000802402B
:103530000004024010B586B000241948009401949C
:1035400002940394049415490594016040F2CF71EC
:10355000C0E90114C1604FF4007101618021416133
:10356000FFF734FA08B1FDF74CF84FF480500090A3
:1035700069460B48FFF754FB08B1FDF742F8049485
:1035800004A907480594FFF791F908B1FDF739F848
:103590000348FFF7D1FA06B010BD00000004004058
:1035A0009404002010B500220B490C4800F0BEFF27
:1035B00008B1FDF726F80A49084801F00CFB08B1EC
:1035C000FDF71FF8054801F05BFB002803D0BDE8BC
:1035D0001040FDF716B810BD20000020480700205D
:1035E000C0000020FEE7FEE72DE9F84F044640F654
:1035F0008F7B48F60F7A4FF002094FF4806874E130
:10360000B0F8441011F00F063AD030F826703904A3
:103610007DD530F8261001EA0B0141F0800120F839
:10362000261006EB860004EBC00595F8740105F53D
:10363000B47500286CD0E87802286AD0287822680F
:1036400032F8201048F68F73194048F2C00319432E
:1036500022F820102878D4F800C03CF82010BCF8DC
:10366000502049047ED509EBC000111808EB410039
:103670003CF800008005800D009074D02A89D8E0C5
:10368000C9062DD4018801EA0A0141F400410180F4
:10369000216804F12805B1F850202B7809EBC3000C
:1036A000024408EB4200085AC0F309006064E16B71
:1036B0000844E06300212046FDF7E2FB94F8240073
:1036C00000289CD0A869002899D194F8240021688A
:1036D00040F08000A1F84C00002084F8240004E1B0
:1036E000018804F5B4750A0521D5B0F850202B786F
:1036F000062101EBC3010A4408EB4201405A04F5DC
:103700002C71C0F30903EB61EA88206802E0ACE0A9
:1037100068E07AE002F046F92168088800EA0B00C8
:1037200040F0800008802046FEF701F8DDE0090443
:10373000D5D5018801EA0B0141F0800101802068A4
:10374000B0F850202B78062101EBC3010A4408EBA6
:103750004201405A83059B0DEB6110D0696971B13C
:10376000EA8801E058E056E0206802F01BF9E969B8
:1037700068690844686100212046FDF78AFB2068DB
:10378000018809052DD4B0F850100844296900F2C9
:103790000C4051B13E2910D84A08C90700D0521C2C
:1037A0004FF6FF7101EA82210FE0018821F4F84110
:1037B0000180018841F4004107E04A09C90600D1AF
:1037C000521E4FF4004141EA8221018020680188A5
:1037D0004BF68F72114081F4405148F28002114340
:1037E000018082E0D4F800C0BCF850102A7806208E
:1037F00000EBC200014408EB41003CF800008005EA
:10380000800D00901AD0EA8813E03A4629462046F7
:10381000FDF79DFB009011E0062101EBC00011189F
:1038200008EB41003CF800008005800D009005D0B9
:103830006A8903466046696902F0B4F8E96900984C
:103840000844E8616969009808446861A86918B18A
:1038500029690098814204D929782046FDF719FB8F
:1038600003E02946206801F083FD38063DD506EBCC
:10387000860004EBC001206830F8262002EA0A0224
:1038800042F4004220F8262091F82B00283103282A
:1038900004D018B1022824D1F80522D42368B3F843
:1038A00050200D7809EBC500024408EB4200185A7D
:1038B0008A69C0F3090082420CD9121A8A610BD0BE
:1038C0004A6902444A61CA691044C861206801F02B
:1038D0004FFD0AE000208861E9B22046FDF7D0FAEA
:1038E00003E03A462046FDF7A5FB2068B0F84410F7
:1038F00009043FF585AE0020BDE8F88F38B51C49B6
:10390000002309681B4A11F0F00F23D118491C311C
:103910000C68E500184C03D5216801F4C0540EE092
:103920000D6845F080550D600D6805F080550095D7
:1039300024680D6804F4C05425F080550D60B4F57A
:10394000C05F07D1B0F5404F04D11068012340F0AB
:1039500004001060106820F0010018431060106827
:1039600000F00100984201D0012038BD002038BD90
:1039700008380240003C02400070004010B5D0F80A
:1039800090421A44D4F860329A4206D92123052283
:1039900000F03AFA4FF0FF3010BD002010BD0000DB
:1039A0002DE9F04113780024232B7DD00DDC1A2B58
:1039B0007BD005DCEBB1032B39D0122B11D163E0A6
:1039C0001B2B01D01E2B0CD18DE02A2B6ED004DCDA
:1039D000252B6CD0282B04D1ABE02F2B68D05A2B91
:1039E00067D02023052200F00FFA4FF0FF30BDE82A
:1039F000F081D0F8907205460E46D7F8140228B12F
:103A0000202397F81912052228469FE0D5F8940242
:103A100081683046884740B13A2302223146284621
:103A200000F0F2F9052038729AE07C8198E0D0F835
:103A3000900200214318491CC9B21C731229F9D302
:103A4000702101730C21C17490F85C1290F85D3202
:103A5000994212D000EBC103491C93F83C52857384
:103A600093F84152057693F84032C9B2437680F814
:103A70005C12042901D180F85C4212214181117944
:103A800012296DD841816BE05478D0F89032E40768
:103A900012D0072033495881401E0004000C03EB6C
:103AA00000040A5C227305E03DE020E044E03DE0D4
:103AB00045E02AE0F0D153E0D0F8940201EBC101D7
:103AC0001279C06900EB81010879401D824200D85B
:103AD0001046588104E0401E80B21C180A5C227314
:103AE0000028F8D13CE0D0F89002448138E0D0F8CA
:103AF000901208201C4A4881401E0004000C01EB73
:103B00000004135C2373F7D12AE0D0F89002082157
:103B1000164A4181491E0904090C00EB0104535C5B
:103B20002373F7D11CE000F038F919E000F00AF92E
:103B300016E000F0BAF813E000F080F910E05278D7
:103B4000D0F89052920704D52423052200F05CF9A6
:103B500006E0D5E99923FFF711FF002800DB6C810F
:103B6000002044E7E57B0008EC7B0008F47B0008BC
:103B70002DE9F041D0F8904206460F46B4F85E02B7
:103B8000D4F868524FF4007145438D4200D30D467E
:103B9000B5FBF0F083B2D6F8940204F10C01D4F82E
:103BA0006422D0F810C088463846E047002809DA79
:103BB000112304223946304600F026F94FF0FF3039
:103BC000BDE8F081ABB242468221304600F085FE6E
:103BD000B4F85E02D4F86422B5FBF0F1B5FBF0F066
:103BE0001144C4F86412D4F86812081AC4F86802C0
:103BF000D4F83412A1EB0501C4F8341201D103202A
:103C000020720020DCE72DE9F047D0F8904207460B
:103C10004FF40075B4F85E02D4F8686288464643F3
:103C2000AE4200D32E46B6FBF0F083B2D7F8940232
:103C300004F10C01D4F86422D0F814C0894640463F
:103C4000E047002809DA032304224146384600F001
:103C5000DBF84FF0FF30BDE8F087B4F85E12D4F81F
:103C60006422B6FBF1F01044C4F86402B6FBF1F034
:103C7000D4F86822101AC4F86802D4F83422A2EBEF
:103C80000602C4F834220BD04843A84200D3284689
:103C900083B24A460221384600F088FD0020DAE768
:103CA00000213846FFF76CFBF8E72DE9F041D0F82A
:103CB000904206461546207A8846C8BB94F81802FA
:103CC0004FF0FF3700062ED5D6F8940281684046A3
:103CD000884730B13A2302224146304600F094F83A
:103CE00013E0D5F80200414600BA20F0FF026879DF
:103CF0000243C4F86422B5F8070043BA3046C4F85A
:103D00006832FFF73BFE002802DA3846BDE8F08152
:103D100002202072B4F85E12D4F868024843D4F846
:103D20001412884205D0202394F819120522D4E7F2
:103D3000FFE74FF40070608141463046BDE8F04136
:103D4000FFF716BF70B505460E46D5E9A44004F24C
:103D50005E224368911C3046984740B13A230222C4
:103D60003146284600F050F84FF0FF3070BDD4F8CF
:103D70006002401E010E2173010C6173010AA173E0
:103D8000E073002020746074B4F85E02010AA1742C
:103D9000E07408206081002070BD2DE9FC410546DB
:103DA000D0F8904200200F4606462118401C80B2F1
:103DB0000E730C28F9D3D5F894026A4601A943681A
:103DC0003846984748B13A2302223946284600F03F
:103DD0001BF84FF0FF30BDE8FC810820E07301982C
:103DE000401E010E2174010C6174010AA174E0747B
:103DF000022020756675BDF80000010AA175E07506
:103E00000C2060810020E6E7D0F8900290F85D1267
:103E100000EBC10181F83C2290F85D22002100EB0B
:103E2000C20282F8401290F85D22521CD2B280F891
:103E30005D22042A01D180F85D1270472DE9F0411E
:103E4000D0F8904205461746207A884620B1284689
:103E5000BDE8F041FFF7D7BE94F818024FF0FF36E7
:103E6000000635D4D5F8940281684046884728B1C9
:103E70003A230AE02846FFF7C7FF1DE0D5F8940271
:103E8000C1684046884718B1272302224146F1E71E
:103E9000D7F80200414600BA20F0FF0278790243C9
:103EA000C4F86422B7F8070043BA2846C4F8683259
:103EB000FFF764FD002802DA3046BDE8F081B4F86F
:103EC0005E02D4F868124143D4F81402884204D048
:103ED000202394F819120522CCE74FF40070814298
:103EE00000D30146012020728BB204F10C020221A2
:103EF000284600F05BFC0020DFE7000038B50446F0
:103F00001248134B0068B0FBF3F04FF47A73584338
:103F100000906068B0F5827F0DD10B4600920022C0
:103F20008021204600F016F870B1606D40F020004E
:103F30006065032038BD009830B1401E00902068B5
:103F40008068C0430006F6D5002038BDA4000020DC
:103F500000366E012DE9F8431E4691468846044618
:103F6000089DFCF725FE401B351AFCF721FE07468D
:103F700025480068C0F3CB30684338E0701C37D068
:103F8000FCF716FEC01BA84203D215B1009860B31F
:103F90002CE02068416821F0E00141606068B0F5E4
:103FA000827F0BD1A068B0F5004F02D0B0F5806FD2
:103FB00004D12068016821F040010160A06AB0F5D9
:103FC000005F09D12068016821F400510160206878
:103FD000016841F400510160012084F85100002083
:103FE00084F850000320BDE8F8830025401E0090AF
:103FF0002068816838EA010004D000214945BDD11C
:104000000020F0E70121F9E7A4000020034803683D
:104010005B1E0B608088108000207047900000209D
:104020000020704700207047002070470020704734
:1040300010B5002001F0FAFE002010BD10B50020E0
:1040400001F052FF002010BDFFF7ACFA012002F092
:10405000A2F9FBE710B5502080F31188BFF34F8F12
:10406000BFF36F8F03F0B2FB18B104494FF08050DB
:104070000860002080F3118810BD000004ED00E00E
:1040800010B592B034216846FCF714FA14210DA83B
:10409000FCF710FA1648016821F4C05141F40061A0
:1040A000016003200124CDE900041020CDE9034084
:1040B00002200990C0030A9000010B9080000C9030
:1040C0006846FDF735FD08B172B6FEE70F20CDE971
:1040D0000D0400200F901090014611900DA8FDF7DF
:1040E00059FB002801D072B6FEE712B010BD0000E7
:1040F000007000407047000010B50348FEF765FFF0
:10410000BDE8104001F0DABED40400200148FEF7FB
:104110005CBF000094040020F0B502684FF0804CB2
:10412000184B194C194D1A4E604507D0984205D0CE
:10413000A04203D0A84201D0B04205D122F07007BE
:104140004A683A4360450DD098420BD0A04209D04E
:10415000A84207D0B04205D00E4B984202D00E4B79
:10416000984203D122F44073CA681A430B6922F0C3
:1041700080021A4302608A68C26209688162012172
:104180004161F0BD0004004000080040000C004008
:1041900000080140000C01400010014010B5846887
:1041A00042EA032224F47F440A432243826010BD82
:1041B000826822F070020A4342F007018160704772
:1041C00010B5036A046A24F001040462846924F0CF
:1041D000F00444EA021423F00A020A4384610262F2
:1041E00010BD10B5036A23F0100303628369046AEB
:1041F00023F4704343EA023224F0A00343EA01119E
:104200008261016210BD10B5D0F8901269B1027CD4
:10421000002AD1F8042205D04023012100F0C6FA7B
:10422000002010BD4FF40073F7E7022010BD0246D6
:104230000220002902D00020C2F894127047D0F862
:104240009002C0F8041200207047D0F89002C0F825
:104250001022C0F808120020704710B5D0F88C2248
:1042600052689047002010BD134610B50A46002141
:1042700000F09CFA002010BD134610B50A4600213C
:1042800000F02BFB002010BD10B50446802100F08B
:1042900009FB2046BDE81040002100F003BB10B52B
:1042A0000323C0F84821C0F86C32C0F84C211346F3
:1042B0000A46002100F07AFA002010BD10B5052151
:1042C0000023C0F86C121A46194600F06FFA00205D
:1042D00010BD10B50223C261C0F86C3202621346F1
:1042E0000A46002100F0F9FA002010BD10B50421A3
:1042F0000023C0F86C121A46194600F0EEFA0020AE
:1043000010BD000010B50A46024903A000F0DEF817
:10431000004810BDE40900204D534320436F6E66F2
:1043200069670000122008800048704740000020A4
:1043300010B50A46024903A000F0C8F8004810BDB5
:10434000E40900204D534320496E74657266616331
:104350006500000004200880004870473C000020F1
:1043600010B50A46024903A000F0B0F8004810BD9D
:10437000E409002053544D6963726F656C65637482
:10438000726F6E696373000010B50A46024903A09C
:1043900000F09CF8004810BDE409002053544D3350
:1043A00032204D6173732053746F72616765000032
:1043B00010B51A2008800948F0E9341480680818FC
:1043C00009D008220649FEF79FFE05490422103154
:1043D0002046FEF799FE0248801E10BD0000F81F1F
:1043E00056000020F8B5044648880D46010A082901
:1043F0004BD2DFE801F04A0409174A4A4048D4F892
:104400008812207C0A6832E0207C02260028D4F83A
:104410008C0205D0C16A684688470146467041E073
:10442000816AF8E7C0B206282FD2DFE800F003085F
:104430000D12171CD4F88812207C4A6817E0D4F8B3
:104440008812207C8A6812E0D4F88812207CCA681E
:104450000DE0D4F88812207C0A6908E0D4F88812AC
:10446000207C4A6903E0D4F88812207C8A69694676
:104470009047014616E0207C38B9D4F88C02416B95
:1044800068468847F5E7207C20B129462046FFF79B
:10449000FBFEF8BDD4F88C02016B684688470146E4
:1044A00007204870BDF8000048B1EA8852B1824246
:1044B00000D90246ADF800202046FFF70AFFE88841
:1044C0000028E6D12046FFF711FFF8BD70B50023A4
:1044D00000281ED00446002502E06D1CEDB2641CCD
:1044E0002678002EF9D1022404EB450414801278BA
:1044F000CA545B1C0322CA5400245B1C06E0CA5445
:104500005B1CDAB28C54521CD3B2401C0278002AD5
:10451000F5D170BD01004FF0000004D0012901D099
:10452000022901D0022070470120704710B580B1E8
:10453000D0F88C3213B10023C0F88C3209B1C0F826
:104540008812012180F87412027000F0C7F8002070
:1045500010BD022010BD10B5D0F89802FCF7C9FCC0
:10456000BDE81040FFF7D6BF10B5D0F89802FCF7B1
:104570009AFCBDE81040FFF7CDBF2DE9F04117468A
:10458000044651B1D4F88C0242691AB194F874020D
:10459000032851D00220BDE8F081D4F86C32002508
:1045A00004F11400022B03D0042B3AD0C3B33CE037
:1045B000D0E903639E4207D9F11AC1608AB2394635
:1045C0002046FFF759FE12E08068B0FBF3F103FBD1
:1045D000110199B9984211D3D4F8701288420DD2C2
:1045E000002211462046FFF747FEC4F87052002310
:1045F0001A461946204600F0D9F816E0D4F88C0285
:10460000C16829B194F87402032801D12046884773
:104610008021204600F046F92046FFF74FFE04E0D7
:10462000FFE78021204600F03DF994F87802012848
:1046300004D184F8785201E0204690470020AAE790
:1046400070B51546044649B1D4F88C0282691AB196
:1046500094F87402032830D0022070BDD4F86C1294
:1046600004F5A070032902D005291ED027E0D0E967
:1046700003218A420BD9531AC3600846834200D3F0
:1046800003469AB229462046FFF7EEFD17E0D4F81C
:104690008C02016929B194F87402032801D12046E3
:1046A00088472046FFF722FE09E000200146C4F8B3
:1046B0006C02204600F0F6F801E02046904700200A
:1046C00070BD10B5D0F89802FCF74CFEBDE8104064
:1046D000FFF720BFD0F89802FCF746BE10B504469D
:1046E00022482349C0F8E842C4F898020160082132
:1046F0004160022181600161002181610162FCF75A
:104700004FFF08B1FBF77DFF0022D4F89802182371
:10471000114604F52674FCF787FB582300228021FC
:104720002068FCF781FB9823002281212068FCF798
:104730007BFBD823002201212068FCF775FB4FF496
:104740008C73002282212068FCF76EFB4FF4AC735F
:10475000002202212068FCF767FB4FF4CC73002293
:1047600083212068FCF760FB002010BD540E002060
:10477000005C00400A0601F07F01D0F8980201EBCE
:10478000810100EBC10002D590F82A00704790F833
:104790006A01704710B51C461346D0F898022246AD
:1047A000FCF7EBFDBDE81040FFF7B4BE10B5D0F844
:1047B0009802FCF712FEBDE81040FFF7ABBE70B5E3
:1047C0000022044640231146FFF7E4FF402601255E
:1047D000C4F850613346002280212046C4F8445179
:1047E000FFF7D8FF6662A56184F874520020C4F810
:1047F0006C026060C4F87C02D4F8900228B1D4F84E
:104800008C020021426820469047002070BD90F83D
:10481000751280F874120020704710B590F8741269
:10482000032904D1D0F88C12C96901B1884700204E
:1048300010BD01740020704710B5D0F89802FCF745
:1048400062FFBDE81040FFF765BE70B5044600F595
:104850002070054600F0ABF90120C4F86C02B4F8F2
:104860008602C4F8700294F8800210F01F010AD08A
:1048700001290DD0022910D000F08001204600F05F
:1048800011F8002070BD2946204600F0FEF9F8E737
:104890002946204600F02AFBF3E72946204600F08F
:1048A0007DFAEEE710B5D0F89802FCF7AFFDBDE851
:1048B0001040FFF72FBE10B5D0F89802FCF73EFF6E
:1048C000BDE81040FFF726BE90F8741280F875120C
:1048D000042180F874120020704710B5D0F89802B7
:1048E000FCF7C4FDBDE81040FFF714BE70B50D46DF
:1048F0000446022902D0012D07D020E0FEF72EFC4D
:1049000029462046FEF7D5FC19E0FEF719FCD4F83D
:104910009812D4F89002A0B1236B00222BB1096E3B
:10492000B3FBF1F601FB163111B1C0F8142206E019
:10493000002322631A4629462046FFF7CEFF0020B7
:1049400070BD022070BD70B50E460546022902D02A
:10495000012E07D01BE0FEF701FC31462846FEF78A
:10496000C5FC14E0FEF7ECFB31462846D5F8904232
:10497000FFF7B0FEC4F80C02D5F8900248B1D5F8A4
:104980009412D4F80402CA6804F503719047002019
:1049900070BD022070BD0020704700000A21018018
:1049A00000487047630100206A2101800048704779
:1049B000F90000206A21018000487047F9000020BA
:1049C0006A21018000487047F900002070B5054653
:1049D000FEF7B6FB4023022281212846FFF7DAFECC
:1049E0004023022201212846FFF7D4FE0823032298
:1049F00083212846FFF7CEFED5E9A4400068804712
:104A00000020C4F81402C4F81802402301212846EB
:104A1000D4F80422FFF7CAFE2846FEF79FFB0222C5
:104A2000402311462846FFF7B5FE4023022282218B
:104A30002846FFF7AFFE2846FEF775FC002070BD44
:104A400070B50546FEF77CFBD5E9A44159B194F851
:104A50000002FF2807D08B6894F80122214698476E
:104A6000FF2084F80002002070BD000070B50546EC
:104A700088880C46022828460AD0FEF761FB207879
:104A8000D5F8906210F060017FD0202927D15BE03B
:104A9000FEF764FB2078D5F8906210F0600125D015
:104AA00020297AD16178FE2902D0FF2918D10DE0A2
:104AB0006188A9B9E188012912D1000610D5D5F87D
:104AC0009402806980470122306048E0618839B9EA
:104AD000E18829B9000603D42846FEF745FC5CE0CE
:104AE00021462846FFF7D0FB022070BD60780128E0
:104AF0000BD00A2802D00B284FD103E00122284610
:104B0000311D48E0A078706047E021792846FFF722
:104B1000D8FD21792846FFF727FD20794FF400734F
:104B20000006287C04D500B140230222822103E044
:104B300000B14023022211462846FFF72BFE2179BF
:104B40002846FEF7A1FB28E0E288B2B100066078B3
:104B500007D5D5F894128B6831469847E2883146DC
:104B600018E086F80002A07986F80102E288314652
:104B70002846FFF794FB10E007E0D5F89412607820
:104B800000228B682146984707E060780A2804D104
:104B9000034901222846FFF79CFB002070BD00005E
:104BA000F800002009B1C0F89412002070470A787C
:104BB00002704A7842708A78CB7802EB03224280F6
:104BC0000A794B7902EB032282808A79C97902EB58
:104BD0000121C18070470246002011B1C2F88C1239
:104BE00070470220704710B5D0F88C2202241AB109
:104BF0001268904700B90024204610BD70B50E46DB
:104C00001E4D897804462970012931D894F8740220
:104C100002280BD003280FD031462046FFF734FB83
:104C200029782046BDE87040FFF717BBD9B10320B3
:104C3000616084F8740209E071B16068884212D042
:104C4000C1B22046FFF709FB297861602046FFF7D3
:104C5000CAFF02280CD006E0022084F87402204625
:104C60006160FFF7FAFA2046BDE87040FFF73EBBEF
:104C700031462046BDE87040FFF706BBB00000207B
:104C800010B5FFF718FE002010BD2DE9F0410A789D
:104C9000002612F0600208D0202A01D0402A70D1EC
:104CA000D0F88C22926890476DE04B780022012565
:104CB0000A2B66D2DFE803F0405D6557650805659D
:104CC0002C29FFF78FFB5EE004468888D8B9C88896
:104CD000C8B94888802816D200F07F0794F874027B
:104CE000032810D084F8767239462046FFF7A4FDD9
:104CF0002046FFF7FBFA1FB1022084F8740242E05D
:104D000084F874523FE020463BE0FFF777FF3AE03B
:104D1000CB88012B35D190F87432012B04D0022BB3
:104D200002D0032B2DD104E08260012200F10801A2
:104D300016E00122011D13E090F87422012A03D02D
:104D4000022A01D0032A1CD1CA88022A19D1C560BF
:104D5000D0F87C1209B10321C160022200F10C01DC
:104D6000FFF7B7FA0FE0498801290CD1C0F87C524F
:104D700011E090F87432012B08D0022B06D0032BDF
:104D800004D0FFF781FA3046BDE8F0814988012957
:104D9000F9D1C0F87C22FFF7A9FAF4E72DE9F04138
:104DA0000A46044610780027097910F060030AD0FB
:104DB000202B01D0402B50D1D4F88C0211468368AF
:104DC000204698478FE0C0F34110012806D0507864
:104DD000D0B301282AD003283FD107E0D4F88C02B1
:104DE000114683682046BDE8F041184794F87402E4
:104DF000022802D0032872D10AE071B380296ED054
:104E00002046FFF74FFD80212046FFF74BFD6AE06B
:104E1000508838B931B1802904D0D08810B92046E3
:104E2000FFF740FD2046FFF761FA5CE094F874025A
:104E30000228E2D0032852D1508898BB4806F1D00E
:104E40002046FFF788FBEDE7FFE794F874020026A1
:104E5000022803D0032842D112E040E009B18029A2
:104E60003DD1080601F07F0000EB800004EB8001DB
:104E700001D5143101E001F5A07102220E602AE093
:104E8000080601F00F0000EB800004EB80000AD55B
:104E9000806920B301F07F0000EB800004EB800507
:104EA00014350BE01FE0D0F84401C0B101F07F00E1
:104EB00000EB800004EB800505F5A07541B1802969
:104EC00006D02046FFF756FC10B10120286000E014
:104ED0002E60022229462046FFF7FBF903E0114627
:104EE0002046FFF7D1F93846BDE8F08170B5054698
:104EF00008780C4610F0600003D0202801D040282C
:104F000016D195F87402012803D0022801D0032895
:104F10000ED1207903280BD8D5F88C028268284658
:104F20009047E188014306D12846FFF7DFF902E008
:104F30002846FFF7A9F9002070BD2DE9F0470C784D
:104F4000002630F8243048F68F121340CA78002A21
:104F50007DD0012A7CD0022A02D0032A7FD00126EC
:104F600048F28002134320F824300D7830F82540B1
:104F700048F68F731C402C43144320F825400D7BCA
:104F800048F2C00C48F6BF744CF280074BF68F799C
:104F9000EDB391F80080C24630F8285048F28018EE
:104FA0001D4045EA080520F82A50B0F8505091F805
:104FB0000080054405EB0815B1F8088028F00108C9
:104FC000A5F80084B0F8505091F80080054405EB36
:104FD0000815B1F80A8028F00108A5F808844D7872
:104FE000002D0D7830F825804FEA48487DD0B8F183
:104FF000000F07DA30F8258008EA030848EA0708B6
:1050000020F825800F7830F827506D0600E02CE05E
:1050100006D530F827501D4045EA0C0520F82750EA
:10502000CB780D78012B30F8253003EA040301D04A
:1050300083F02003134320F825300B7830F8231039
:1050400001EA0901114320F82310304602E003E091
:1050500008E004E0BDE8F08743F4007380E743F420
:10506000C0637DE743F480637AE74D782DB3B0F8F1
:1050700050500F78054405EB0715CF8827F001073E
:10508000A5F800740F7830F827506D0606D530F873
:1050900027501D4045EA0C0520F82750CB78012BFE
:1050A00006D00B7830F82310214081F02001C9E7A9
:1050B0000B7830F823102140C4E7B0F850400D7849
:1050C000044404EB0514CD8825F00105A4F8085428
:1050D000B0F850400D78044404EB05140D6904F257
:1050E0000C4475B13E2D14D800E030E04FEA550C69
:1050F000ED0701D00CF1010C4FF6FF7505EA8C2588
:1051000011E0258825F4F8452580258845F40045DB
:1051100009E04FEA551CED0601D1ACF1010C4FF44A
:10512000004545EA8C2525800D7830F8254064043B
:1051300005D530F825401C403C4320F825400B782D
:1051400030F8231001EA090181F440517AE7B8F1FF
:10515000000F07DA30F8258008EA030848EA070854
:1051600020F825800F7830F827506D0606D530F8E6
:1051700027501D4045EA0C0520F827500D7830F8DF
:10518000253003EA090383F44053134320F8253004
:105190008EE72DE9F04391F80C804F780A7848F6B5
:1051A000BF7C4BF68F7948F2800348F2C0054CF281
:1051B000800648F68F74B8F1000F28D0002F30F821
:1051C00022704FEA474748D0002F05DA30F82270A6
:1051D0002740374320F822700A7830F822707F0683
:1051E00005D530F8227027402F4320F822700D7823
:1051F00030F825202240324320F825200C7830F862
:10520000242002EA0C021A4320F824201AE07FB17D
:1052100030F82260760605D530F8226026402E430D
:1052200020F822600A7830F8221001EA0C010EE022
:1052300030F822506D0405D530F822502540354312
:1052400020F822500A7830F8221001EA09011943A7
:1052500020F822100020BDE8F083002F05DA30F896
:1052600022702740374320F822700A7830F82260F5
:10527000760605D530F8226026402E4320F82260BD
:105280000E7830F8262022402A4320F826200C7879
:1052900030F8242002EA09021A4320F82420C1E74A
:1052A00000207047012120F8401F002101808180EB
:1052B00001820846704730F8401F21F43F410180C9
:1052C0000020704730B50A7BB2BB4A7848F68F752C
:1052D00048F28004C2B10B7830F82320520607D57B
:1052E00030F823202A4048F2C0052A4320F8232022
:1052F000CA78012A20D00A7830F8221048F6BF7305
:10530000194081F0200114E00A7830F822305B0463
:1053100007D530F822302B404CF280052B4320F883
:1053200022300A7830F822104BF68F73194081F43E
:105330004051214320F82210002030BD10B54A789A
:105340000978002A48F2800330F8212005D048F679
:10535000BF74224082F0100204E04BF68F742240AA
:1053600082F480521A4320F82120002010BD000052
:105370002DE9F0470E464B78097B04464FF00009B3
:1053800048F68F7248F2800A4FF6FF774FF40048D4
:10539000012B09D000296ED0F07802286CD00128AA
:1053A0006BD00120BDE8F087B5693069854200D92E
:1053B0000546C9B1F17848F28013022923D031782B
:1053C00034F821001040184324F82100306A401BB3
:1053D0003062307834F82010490671787ED5002983
:1053E0007DD001297CD03FE1ABB2F28820467169C3
:1053F00000F0F4FAB4F850003178204400EB0110CA
:10540000A0F80454EAE0316A81426AD9317834F86C
:1054100021001040184324F82100306A401B3062FC
:10542000307834F82010490671786CD511B1012913
:1054300024D02AE0B4F85010214401EB001000F20F
:105440000C404DB13E2D0FD86908EA0700D0491C29
:1054500007EA8121018018E0018821F4F8410180E8
:10546000018841F40041F5E76909EA0600D1491EC7
:1054700048EA8121EEE79CE1BCE126E2B4F8502045
:10548000111901EB0010A0F80C547289ABB2204640
:10549000716900F0A3FA7069284470613169306A5B
:1054A000884202D9401B306202E00546C6F82090CF
:1054B000707800287CD1B4F850003178204400EB9B
:1054C000011000F204406DB13E2D13D86908EA07BF
:1054D00000D0491C07EA8121018012E001E19BE034
:1054E000BBE084E0018821F4F8410180018841F4A7
:1054F0000041F1E76909EA0600D1491E48EA812125
:10550000EAE7328965E011B1012921D027E0B4F83A
:105510005010214401EB001000F204404DB13E2D2B
:105520000FD86908EA0700D0491C07EA81210180E9
:1055300015E0018821F4F8410180018841F400411F
:10554000F5E76909EA0600D1491E48EA8121EEE73C
:10555000B4F85010214401EB0010A0F80454328933
:10556000ABB22046716900F039FA70692844706165
:105570003169306A884202D9401B306202E0054638
:10558000C6F82090707800287ED1B4F850003178A9
:10559000204400EB011000F20C4055B13E2D10D814
:1055A0006908EA0700D0491C07EA812101800FE061
:1055B00072E0018821F4F8410180018841F4004142
:1055C000F4E76909EA0600D1491E48EA8121EDE7BE
:1055D0007289ABB22046716900F000FA317834F874
:1055E000210048F6BF72104080F03000C0E13278F0
:1055F00034F8220048F68F63184040EA0A0024F885
:105600002200B4F850003278204400EB02108BB234
:10561000A0F804343289DDE7B4F85010214401EBDE
:10562000001000F20C404DB13E2D0FD86908EA077A
:1056300000D0491C07EA8121018015E0018821F48E
:10564000F8410180018841F40041F5E76909EA0663
:1056500000D1491E48EA8121EEE7B4F85020111923
:1056600001EB0010A0F80C547289ABB220467169AE
:1056700000F0B4F97069284470613169306A884279
:1056800003D9401B306203E06EE00546C6F8209067
:10569000002DA3D0707858B101287FF41EAFB4F864
:1056A00050003178204400EB0110A0F8045428E7A2
:1056B000B4F850003178204400EB011101F20441AC
:1056C0003E2D06D86808EA0700D0401C07EA802073
:1056D00005E06809EA0600D1401E48EA80200880FB
:1056E0000FE711B1012921D027E0B4F8501021446F
:1056F00001EB001000F204404DB13E2D0FD86908B7
:10570000EA0700D0491C07EA8121018015E00188E1
:1057100021F4F8410180018841F40041F5E769096D
:10572000EA0600D1491E48EA8121EEE7B4F850109C
:10573000214401EB0010A0F804543289ABB220469A
:10574000716900F04BF97069284470613169306A01
:10575000884202D9401B306202E00546C6F820901C
:10576000002D96D0707858B101287FF420AFB4F89E
:1057700050100819317800EB0110A0F80C5427E7FD
:10578000B4F850003178204400EB011101F20C41D3
:105790003E2D06D86808EA0700D0401C07EA8020A2
:1057A00005E06809EA0600D1401E48EA802008802A
:1057B0000EE7B1693069814202D9091AB161B5E0D9
:1057C0000846C6F81890B1E0088820F4F840088030
:1057D000088840F400400BE03E2875D84208C00716
:1057E00000D0521C07EA822002E000BF48EA822073
:1057F0000880B5E093B9B4F850003178204400EB4C
:105800000110316900F2044069B13E2913D84B08F8
:10581000C90700D05B1C07EA83210180707888B13A
:10582000012832D03AE0018821F4F8410180018852
:1058300041F40041F1E74B09C90600D15B1E48EA7B
:105840008321EAE7B4F850003178204400EB0110DE
:10585000316900F20C4049B13E290FD84B08C90705
:1058600000D05B1C07EA8321018017E0018821F446
:10587000F8410180018841F40041F5E74B09C90670
:1058800000D15B1E48EA8321EEE7B4F850100819F6
:10589000317800EB0110318AA0F80C14F069A8B33C
:1058A000317834F82100430401D5430603D444F28F
:1058B0004003184254D134F82100104048F2C0028D
:1058C000104324F821004BE03CE0B169306981428B
:1058D00002D9091AB16102E00846C6F818908BB9DE
:1058E000B4F850103278214401EB021101F2044166
:1058F00068B13E2813D84208C30700D0521C07EAFB
:1059000082220A80717889B1012921D028E00A8891
:1059100022F4F8420A800A8842F40042F1E7420980
:10592000C30600D1521E48EA8222EAE7B4F85010BA
:105930003278214401EB021101F20C4100287FF47E
:105940004BAF41E74209C0067FF450AF521E4DE70E
:10595000B4F850201119327801EB0211A1F80C04AF
:10596000317834F821004BF68F72104080F44050AB
:1059700040EA0A0024F82100002013E50021A0F8E5
:1059800044104FF43F41A0F8401000207047000041
:105990000148FBF785BD0000540E0020B0F844001C
:1059A0007047000010B500EB42005C0800F5806015
:1059B00009D000BF30F8042B01F8012B120A01F8BE
:1059C000012B641EF6D1DA0701D00088087010BDE3
:1059D00011B98021A0F84C100020704710B55B1C55
:1059E00000EB42005B0800F5806009D011F8012B44
:1059F00011F8014B42EA042220F8042B5B1EF5D17A
:105A000010BD00F073B800F007B900F00FBA00F055
:105A10004DBA00F069BAFEE70907090E002804DB59
:105A200000F1E02080F80014704700F00F0000F152
:105A3000E02080F8141D70477047000010B5044640
:105A40000020E070401E2063204600F08BFC08B16F
:105A5000042010BD04F2322000F051FCA0F52A41D0
:105A6000553901D0032010BD94F83400E92805D041
:105A7000EB2814D194F83600902810D104F16A0074
:105A800000F032FC0749B1EB002F06D004F186008C
:105A900000F02AFC0449884201D1002010BD0220F8
:105AA00010BD0000004641544641543330B500213A
:105AB000054B0C4603EB01121568854200D11460BA
:105AC000491C0229F6D330BD4011002010B5012237
:105AD000D1030548FBF736F8012001F0CFFABDE805
